:020000040800F2
:1000000010020020D5000008D3030008CF03000829
:1000100000000000000000000000000000000000E0
:10002000000000000000000000000000F5050008CE
:10003000000000000000000045040008E906000878
:10004000E700000800000000E7000008E7000008E3
:10005000E7000008E7000008E7000008E7000008E4
:10006000E7000008E7000008E7000008E7000008D4
:10007000E7000008E7000008E70000083107000873
:1000800000000000E7000008000000000000000081
:1000900000000000E7000008E7000008E700000893
:1000A00000000000E700000800000000E700000872
:1000B0000000000000000000000000000000000040
:1000C0000348854600F05AF800480047550F0008DD
:1000D000100200200448804704480047FEE7FEE77E
:1000E000FEE7FEE7FEE7FEE7ED060008C1000008B8
:1000F00030B50B46014600202022012409E00D46C0
:10010000D5409D4205D31D469540491B2546954047
:1001100040191546521E002DF1DC30BDF0B51FB45C
:100120000646002082B005464024019100901BE065
:10013000019922460F46304600F042F8049A059B8A
:10014000801A994110D310461946224600F028F82B
:10015000361A8F410197224601200021009F00F0AE
:100160001FF838184D4100902046641E0028DFDC3F
:10017000019B00982946324607B0F0BD064C012588
:10018000064E05E0E36807CC2B430C3C984710343F
:10019000B442F7D3FFF798FF281100084811000870
:1001A00010B5202A04DB0146203A9140002010BD02
:1001B000914020239C1A0346E3401943904010BD10
:1001C00010B5202A04DB0846203AD040002110BD9B
:1001D0000B46D340D0402024A21A91400843194630
:1001E00010BD10B50B460021836200BF0C461443BE
:1001F0002146416110BD002904D0826801231A43C1
:10020000826003E0826802231A4382607047000024
:1002100010B504460548844207D10121401500F07D
:1002200043F90021601500F03FF910BD00240140A2
:1002300030B501460020002200238C680125ED071F
:100240002C438C6000BF8C68E30FDB07521C0F242B
:100250002403A24201D0002BF5D18C68E40FE407FF
:10026000002C01D1086C00E0002030BD0146086C74
:1002700080B2704730B502460020002301242406D6
:100280000C40002C05D0946801252D06AC43234674
:1002900000E013681C460C40002C01D0012000E057
:1002A000002030BD10B50022C268074B1A400B7801
:1002B0005B034C6823438C682343CC6823430C695D
:1002C00023431A43C26010BD00D2FFFF816804229D
:1002D0001143816070470021017041608160C160FD
:1002E00001617047F0B500220023002400BF3DE00B
:1002F000012595402B460D681D402C469C4234D16B
:100300000D79012D02D00D79022D16D18568570087
:100310000326BE40B54385604D795600B5408668DA
:1003200035438560456801269640B543456045687C
:100330008E799640B6B2354345600568570003266E
:10034000BE40B54305600D795600B540066835439B
:100350000560C56857000326BE40B543C560CD792A
:100360005600B540C6683543C560521C102ABFD33D
:100370000D7A002D04D1056B0E683543056303E04B
:10038000056B0E68B5430563F0BDF0B5002300248E
:100390004D07EE0E1546B5402B46CD10AE00054676
:1003A0002035AD594E07F70E0F26BE40B543CE108F
:1003B000B60007462037BD51CD10AE003D46AD59C1
:1003C0001D432C46CD10AD003E467451F0BD00BF1C
:1003D000FEE7704700218278002A27D0184A0323BD
:1003E0001B02D21803789B109B00D1580278920709
:1003F000D30EFF229A400B46934319464278920748
:10040000120E03789B07DB0E9A4011430C4A03231C
:100410001B02D21803789B109B00D1500278D306A0
:10042000DB0E01229A40064B1A6007E00278D306E1
:10043000DB0E01229A40024B80331A6070470000A5
:1004400000E100E070470000002905D0054A52692C
:100450000243044B5A6104E0024A52698243014B51
:100460005A61704700100240002905D0054AD26940
:100470000243044BDA6104E0024AD2698243014B31
:10048000DA61704700100240002905D0054A9269E0
:100490000243044B9A6104E0024A92698243014B91
:1004A0009A61704700100240002905D0054AD268C1
:1004B0000243044BDA6004E0024AD2688243014BF3
:1004C000DA6070470010024070B50446002500262F
:1004D000424840680C2108400546002D04D0042DF8
:1004E00005D00C2D0AD105E03D48206009E03C48CC
:1004F000206006E07D208002206000BF3848206038
:1005000000BF00BF35484068F021084005462D096E
:10051000680034490E5A31462068FFF7E9FD6060F3
:100520002E48406807210902084005462D0A2E483A
:10053000465D6068F040A0602C480069800F80072D
:1005400000280DD12548C030806A1F218906084047
:100550000546AD0EA91C2648FFF7CAFDE06016E06F
:1005600022480069800F800701218907884203D053
:10057000A0684008E0600AE01C480069800F80071E
:100580000121C907884202D0A0688008E0601348B2
:10059000006B10210840102802D01148206101E0B2
:1005A000206820610D48006B8007800F002802D171
:1005B000A068606110E00948006B8007800F012887
:1005C00002D12068606107E00448006B8007800F5B
:1005D000032801D10248606170BD00000010024094
:1005E0000048E80100110008201100080024014023
:1005F0000090D003704710B500F002F810BD000065
:1006000085B0002004900390029001900090334840
:10061000006801210843314908603048C030806AD1
:100620000F21C90288432D49C03188620846806A7B
:100630000721C90208432949C031886200BF274801
:1006400000680221084003900498401C049003981D
:10065000002803D1224904988842F0D11F4800683D
:1006600002210840002802D00120039001E0002070
:100670000390039801282FD11A480068029002982D
:10068000C008C00002900221029808431549086082
:10069000124840680190F0210198884301900F4969
:1006A00001984860084640680090072109020098B8
:1006B00088430090094900984860084640688008CF
:1006C0008000486008464068486000BF03484068B2
:1006D0000C2108400028F9D105B0704700100240F5
:1006E000FFFF0000002002407047000010B50D48D9
:1006F0000068012108430B490860084640680A4920
:100700000840084948600846006B132188430549A2
:10071000086300208860FFF76EFF002003494863EC
:1007200010BD0000001002401CB8FFF8402002403D
:1007300010B50121880700F063F8002819D00121C5
:10074000880700F019F80B480088401C0949088008
:10075000084600887D21C90088420AD10020054949
:1007600008800920C0064069022148400921C906C5
:10077000486110BD04000020CA4392B20261704774
:10078000002904D0026801231A43026003E00268D2
:10079000014B1A4002607047FEFF00001FB50024A5
:1007A000154916480068FFF7A3FC401E84B20121DA
:1007B0000846FFF759FE0F2168460170002141707D
:1007C00001218170FFF706FE7D20C000029068467F
:1007D000848000218181C18001A90120800700F06F
:1007E0002FF801221146900700F01DF8012188071B
:1007F000FFF7C6FF1FBD000040420F0000000020B1
:1008000030B5024600200023002415690D402B4618
:10081000D5680D402C46002B03D0002C01D00120C0
:1008200000E0002030BD10B5002A03D0C3680B43A0
:10083000C36004E0C368CC43A4B22340C36010BDCE
:10084000002203689AB20F4B984203D001239B0702
:10085000984203D10C4B1A404B881A430B4B9842D9
:1008600003D00B4B1A400B891A4302604B68C362DA
:100870000B888362034B984201D18B7A0363012377
:1008800043617047002C01408FFF000000100040C2
:10089000FFFC0000002904D0026801231A43026013
:1008A00003E002685208520002607047F0B587B05A
:1008B00004460D46002700200690002620684008C8
:1008C00040002060666803210903304688430646DD
:1008D000A86806436660266827480640E968686895
:1008E00008432969084306432660A66803210902D4
:1008F00030468843064668690643A6606846FFF7A7
:10090000E3FD1E48844202D10598069001E002985A
:10091000069020680121C903084000280CD02968EE
:10092000069A5000FFF7E4FB07462968069A500034
:10093000FFF7DEFB0E4609E029680698FFF7D8FBB3
:10094000074629680698FFF7D3FB0E46286840083B
:10095000B04200D87F1C20680121C903084000284C
:1009600006D03807460F3846054908403043074649
:10097000B8B2E06007B0F0BDF3E9FFFF0038014016
:10098000F0FF000000BF0449C9698022114000291E
:10099000F9D0014988627047003801400FB410B5A2
:1009A00003A9044B044A029800F018F810BC08BCD4
:1009B00004B01847450F00080800002002E008C8EE
:1009C000121F08C1002AFAD170477047002001E0C9
:1009D00001C1121F002AFBD170470000FFB591B082
:1009E0000F460546002606E025280AD0149A1399DA
:1009F00090476D1C761C28780028F5D1304615B03C
:100A0000F0BD002400940121F34A029400E0044365
:100A10006D1C2B780846203B98401042F7D128786F
:100A20002A280ED0022128780246303A092A15D801
:100A3000009A0A235A43303A80180C436D1C0090E8
:100A4000F1E701CF0090002805DA012040030443BC
:100A5000009840420090022004436D1C28782E2804
:100A600015D10420044368786D1C2A280AD101CFCF
:100A70006D1C02900BE002990A2251433039401854
:100A80006D1C02902878014630390929F3D928785D
:100A90006C2810D006DC4C281AD068280ED06A28A2
:100AA00017D104E0742813D07A2812D110E0012065
:100AB000400504430CE00121090501E0032109057B
:100AC0000C436978814203D10120000524186D1C74
:100AD0006D1C287803906E281ED00CDC632831D062
:100AE00004DC00288AD0582811D1B2E064287BD0D9
:100AF00069280CD178E073282DD004DC6F2870D0E1
:100B0000702804D1A7E075286CD078286BD0149A8F
:100B100013999047761C62E06002400F022807D0CC
:100B200003280AD0042838680AD006603F1D56E022
:100B30003868F11706604160F8E738680680F5E725
:100B40000670F3E73878694608740020487404A8F2
:100B50000390012003E0386803900020C0433F1D4C
:100B600061070FD5002101E00199491C029A01910A
:100B7000914213DA8142F7DB019A0399895C0029DB
:100B8000F2D10BE0002101E00199491C0191814261
:100B9000FADB019A0399895C0029F5D10199009843
:100BA000139A401A00902146149B00F03BF90199DA
:100BB0008019461807E0039803990078491C0391AF
:100BC000149A139990470198401E0190401CF2D14D
:100BD0002146149B139A009800F014F986196D1C95
:100BE00009E741E033E034E00A2000210490059158
:100BF0006002410F022905D001CFC2179446032994
:100C000005D007E0FF1DFF08FF0003CF06E000B29C
:100C1000C2179446042902D140B2C1178C46002263
:100C20006146944506DA0A460021404291418C46CD
:100C30002D2102E0210504D52B216A4611760121E0
:100C400003E0E10701D02021F7E7019154E00A20F9
:100C50000BE0102009E01020049000210420044340
:100C600008200591029003E00820002105910490DE
:100C70006002410F022905D001CF002294460329CA
:100C800006D006E0FF1DFF08FF0003CF8C4603E0FF
:100C900080B2042900D1C0B20021019121072BD5D7
:100CA0000399702906D0049A1021059B4A401A43E3
:100CB00005D00EE040216A461176012108E0614628
:100CC000014306D030216A461176039951760221FC
:100CD0000191049A0821059B4A401A430CD16146B0
:100CE000014301D1610707D530216A461176012100
:100CF00001910299491E02910399582904D037A104
:100D000003910FA90F910DE039A1F9E76146059B09
:100D1000049AFFF703FA039B8C469B5C0F9A521EC2
:100D20000F92137061460143F0D10F9807A9081A7A
:100D300020300390600704D501200004844302980A
:100D400001E0012002900399884201DD401A00E091
:100D5000002041180290019809180098401A00904C
:100D6000E00306D42146149B139A009800F05AF829
:100D700086190020049008E006A9085C149A1399CB
:100D800090470498401C761C049001998842F3DB3C
:100D9000E0030CD52146149B139A009800F042F80A
:100DA000861904E0149A302013999047761C029912
:100DB000481E02900029F5DC08E00F980F99007892
:100DC000491C0F91149A13999047761C0399481E59
:100DD00003900029F1DCFBE60928010030313233B1
:100DE0003435363738396162636465660000000067
:100DF0003031323334353637383941424344454651
:100E000000000000F8B5044600251E461746880479
:100E100004D405E039462020B0476D1C641EF9D586
:100E20002846F8BDFFB50446002581B01E46C8031C
:100E300001D5302700E02027880404D505E0384696
:100E40000399B0476D1C641EF9D5284605B0F0BD66
:100E500000B589B00420069003216846017700217F
:100E6000C17706A91A48FFF73DFA07220221184860
:100E7000FFF78BFA01214802FFF706FB1548FFF741
:100E8000C7F901A8FFF727FA012168460171002080
:100E900003900490059001A90E48FFF703FA07227A
:100EA00010210C48FFF79DF90A48FFF7C1F901210D
:100EB0000848FFF7A0F900BF01210648FFF7DAF95B
:100EC0000028F9D00348FFF701FA09B000BD00007F
:100ED000000C00480024014000B50346B9218900F8
:100EE0005943084600F001F800BD8100401800BFDA
:100EF0000146401E0029FBD170470EB50121480470
:100F0000FFF7A2FA012168460171002181710620D4
:100F100000906846C1710321417169460920C006ED
:100F2000FFF7E0F90920C0064069022108430921C2
:100F3000C906486108464069042188430921C90659
:100F400048610EBD70B504460D46E0B2FFF71AFDCC
:100F5000204670BDFFF7D1FFFFF720FC00F08AF8B4
:100F6000FFF776FF11221EA11FA0FFF717FD22A099
:100F7000FFF714FD33E02448FFF778F904462349CE
:100F8000614308462249FFF7B3F80546FF219C312B
:100F900069430846FF214431FFF7AAF805461822A5
:100FA0000FA111A0FFF7FAFC21461AA0FFF7F6FCEB
:100FB00019220BA10CA0FFF7F1FC29461EA0FFF798
:100FC000EDFC1A2206A108A0FFF7E8FC0DA0FFF730
:100FD000E5FC7D200001FFF77FFF00F039F8CAE74C
:100FE0006D61696E2E630000252D31307309253443
:100FF00064205B495D20000068656C6C6F20776F32
:10100000726C64210D0A000000240140E40C000011
:10101000FF0F00004144435F4452207265676973CB
:10102000746572206F6620434834203A203078255A
:10103000303458200D0A00004144435F56206F664B
:1010400020434834203A202564206D560D0A0000C4
:1010500000200AE0002102E000BF4A1C91B27D227C
:10106000D2009142F8DB421C90B2FF22F53290424E
:10107000F0DB704710B500F001F810BD00B589B085
:1010800001210805FFF7E0F90221684601770021F8
:101090008177022006906846C1770321417706A92F
:1010A0001548FFF71FF9012211461348FFF76DF9A4
:1010B0004020069006A91048FFF714F901220621E6
:1010C0000D48FFF762F901218803FFF7DDF9E12000
:1010D00040020090002005900C2004900020039016
:1010E0000290019069460548FFF7E0FB01210348A3
:1010F000FFF7D0FB09B000BD000C004800380140EC
:1011000001000600010001000100010001000100D2
:1011100002000400080010004000800000010002EE
:101120000000000001020304481100080000002034
:1011300010000000BC090008581100081000002031
:1011400000020000CC0900080048E801000000008F
:08115000000000000000000097
:04000005080000C12E
:00000001FF
